:100000000C9462000C948A000C948A000C948A0070
:100010000C948A000C948A000C948A000C948A0038
:100020000C948A000C948A000C948A000C948A0028
:100030000C948A000C948A000C948A000C948A0018
:100040000C94B3020C948A000C948A000C948A00DD
:100050000C948A000C948A000C948A000C948A00F8
:100060000C948A000C948A00000000080002010031
:100070000003040700000000000000000102040863
:100080001020408001020408102001020408102002
:10009000040404040404040402020202020203032E
:1000A00003030303000000002300260029000000D2
:1000B0000000250028002B0000000000240027007D
:1000C0002A00EF0011241FBECFEFD8E0DEBFCDBF66
:1000D00011E0A0E0B1E0EEE2FBE002C005900D927D
:1000E000A231B107D9F721E0A2E1B1E001C01D9230
:1000F000A333B207E1F710E0C4ECD0E004C02297CC
:10010000FE010E949105C23CD107C9F70E946D040F
:100110000C9495050C94000020E044E064E182E139
:1001200091E00E94CC0162E0809106010E94D4031C
:1001300062E0809104010E94D40361E08091020199
:100140000E94D40362E0809100010C94D403CF9309
:10015000DF9382E191E00E94AB0140E061E082E147
:1001600091E00E94B201809100010E948E03EC0197
:100170004AE050E0BC0182E191E00E946405809178
:1001800006010E944304892B39F5809104010E94E5
:100190004304019709F5C536D105F4F061E080917B
:1001A00002010E940D04BE01882777FD8095982FDB
:1001B0000E94200360E0809102010E940D04BE01B4
:1001C000660F771F6C0F7D1F882777FD8095982F0E
:1001D000DF91CF910C942003DF91CF910895CF92BE
:1001E000EF920F9398E0C92E29E0E22E0AE02BE06F
:1001F0004CE06DE082E191E00E9487020F91EF9068
:10020000CF900895CF93DF93EC0160E08E810E9440
:100210000D0481E090E00E94480361E08E810E941D
:100220000D0481E090E00E94480360E08E810E940E
:100230000D0484E690E0DF91CF910C944803CF92B7
:10024000DF92EF92FF920F931F93CF93DF937C0186
:10025000C0E0D0E0C62ED12C87010C0F1D1F61E03D
:10026000F80187810E94D403B6010C2E02C0759557
:1002700067950A94E2F76170F80187810E940D0486
:100280002196C430D10541F7C701DF91CF911F916D
:100290000F91FF90EF90DF90CF900C940201CF92DE
:1002A000DF92EF92FF920F931F93CF93DF937C0126
:1002B000C0E0D0E0C62ED12C87010C0F1D1F61E0DD
:1002C000F80187810E94D403B6010C2E02C07595F7
:1002D00067950A94E2F76170F80187810E940D0426
:1002E0002196C830D10541F7C701DF91CF911F9109
:1002F0000F91FF90EF90DF90CF900C9402011F932D
:10030000CF93DF93EC01162F642F8C810E940D0494
:100310008D818F3F19F060E00E940D048F85612F61
:1003200084FF06C0CE01DF91CF911F910C944F0145
:1003300070E084E0759567958A95E1F7CE010E949B
:100340001F01612FCE01DF91CF911F910C941F01EE
:1003500040E00C947F0161E00E94A80180ED97E0ED
:100360000C944803443008F043E0FC012389421711
:1003700010F04FEF420FFC01E40FF11D2489260F0E
:100380002068622F0C94A801FC016089262F24604C
:10039000208B6C600C94A801CF93DF93EC0142306A
:1003A00018F08F8588608F874B8B1C8A80E48D8B3B
:1003B0006E8B70E0605C7F4F6F8B222329F04130A1
:1003C00019F48F8584608F8780E593EC0E94480341
:1003D00060E08C810E940D0460E08E810E940D041B
:1003E0008D818F3F19F060E00E940D046F8564FDE0
:1003F0001DC063E0CE010E941F0184E991E10E94CB
:10040000480363E0CE010E941F0184E991E10E944C
:10041000480363E0CE010E941F0186E990E00E943C
:10042000480362E0CE010E941F0116C06062CE0147
:100430000E94A80184E991E10E9448036F856062EF
:10044000CE010E94A80186E990E00E9448036F85D2
:100450006062CE010E94A8016F856062CE010E9499
:10046000A80184E0888BCE010E94C401CE010E94C5
:10047000AB0182E0898B66E0CE01DF91CF910C94D5
:10048000A8016F927F928F92AF92CF92EF920F93CB
:100490001F93CF93DF93CDB7DEB73C01162F842F88
:1004A0005D854E853F859889F30184832583068386
:1004B000E782C086A18682865387448735879687E0
:1004C00061E00E94D403F30185818F3F19F061E060
:1004D0000E94D40361E0F30186810E94D4031123BA
:1004E00019F0F301178603C080E1F301878720E04C
:1004F00041E060E1C301DF91CF911F910F91EF9037
:10050000CF90AF908F907F906F900C94CC018F9292
:10051000AF92CF92EF920F93DC0113961C921E9232
:100520001297EDE0F1E0ED93FC931F921F921F9262
:100530001F928C2CAE2CC02EE22E042F2FEF462FB4
:1005400061E00E9441020F900F900F900F900F9169
:10055000EF90CF90AF908F90089541E00E947F017F
:1005600081E090E008951F920F920FB60F92112430
:100570002F933F938F939F93AF93BF9380912B01C2
:1005800090912C01A0912D01B0912E0130912A0162
:1005900023E0230F2D3720F40196A11DB11D05C0C6
:1005A00026E8230F0296A11DB11D20932A018093F6
:1005B0002B0190932C01A0932D01B0932E018091DB
:1005C0002F0190913001A0913101B091320101963B
:1005D000A11DB11D80932F0190933001A093310193
:1005E000B0933201BF91AF919F918F913F912F9125
:1005F0000F900FBE0F901F9018953FB7F894809101
:100600002F0190913001A0913101B091320126B5B6
:10061000A89B05C02F3F19F00196A11DB11D3FBF3A
:100620006627782F892F9A2F620F711D811D911DCA
:1006300042E0660F771F881F991F4A95D1F70895EA
:10064000CF92DF92EF92FF92CF93DF936B017C0109
:100650000E94FD02EB01C114D104E104F10489F010
:100660000E946C050E94FD026C1B7D0B683E73406E
:1006700090F381E0C81AD108E108F108C851DC4FB5
:10068000EACFDF91CF91FF90EF90DF90CF90089568
:100690008230910538F0880F991F880F991F0597B0
:1006A0000197F1F70895789484B5826084BD84B58C
:1006B000816084BD85B5826085BD85B5816085BD5D
:1006C000EEE6F0E0808181608083E1E8F0E0108276
:1006D000808182608083808181608083E0E8F0E0B7
:1006E000808181608083E1EBF0E0808184608083A1
:1006F000E0EBF0E0808181608083EAE7F0E08081D8
:100700008460808380818260808380818160808337
:100710008081806880831092C10008958E3008F037
:100720008E5087702091080190E4299F9001112438
:10073000822B80937C0080917A00806480937A0081
:1007400080917A0086FDFCCF80917800209179001D
:1007500090E0922B0895833081F028F4813099F055
:100760008230A1F008958730A9F08830B9F0843044
:10077000D1F4809180008F7D03C0809180008F77BD
:1007800080938000089584B58F7702C084B58F7DF3
:1007900084BD08958091B0008F7703C08091B00030
:1007A0008F7D8093B0000895CF93DF9390E0FC019C
:1007B000E458FF4F2491FC01E057FF4F84918823B8
:1007C00049F190E0880F991FFC01E854FF4FA59173
:1007D000B49182559F4FFC01C591D4919FB761118F
:1007E00008C0F8948C91209582238C938881822371
:1007F0000AC0623051F4F8948C91322F30958323E3
:100800008C938881822B888304C0F8948C91822BEE
:100810008C939FBFDF91CF9108950F931F93CF9338
:10082000DF931F92CDB7DEB7282F30E0F901E859EA
:10083000FF4F8491F901E458FF4F1491F901E057FB
:10084000FF4F04910023C9F0882321F069830E949F
:10085000AB036981E02FF0E0EE0FFF1FE255FF4F81
:10086000A591B4919FB7F8948C91611103C0109534
:10087000812301C0812B8C939FBF0F90DF91CF917B
:100880001F910F910895CF93DF93282F30E0F90146
:10089000E859FF4F8491F901E458FF4FD491F901D1
:1008A000E057FF4FC491CC2391F081110E94AB031C
:1008B000EC2FF0E0EE0FFF1FEC55FF4FA591B49128
:1008C0002C912D2381E090E021F480E002C080E0B3
:1008D00090E0DF91CF91089508950E9453030E9404
:1008E0006C040E948C00C0E0D0E00E94A70020971A
:1008F000E1F30E940000F9CFCF92DF92EF92FF92D6
:100900000F931F93CF93DF936C017A01EB01E60EF7
:10091000F71E00E010E0CE15DF0561F06991D60109
:10092000ED91FC910190F081E02DC6010995080F31
:10093000191FF1CFC801DF91CF911F910F91FF9047
:10094000EF90DF90CF9008956115710581F0DB0184
:100950000D900020E9F7AD0141505109461B570B9E
:10096000DC01ED91FC910280F381E02D099480E09F
:1009700090E00895DC01ED91FC910190F081E02D73
:1009800009948F929F92AF92BF92CF92DF92EF9293
:10099000FF920F931F93CF93DF93CDB7DEB7A1974D
:1009A0000FB6F894DEBF0FBECDBF7C01C42EE52F7D
:1009B000CB01D22E19A221E02D1510F02AE0D22E63
:1009C0008E010F5D1F4F8D2C912CA12CB12C6C2D05
:1009D0007E2FA50194010E946D058C2DD29E801959
:1009E0001124015011098A3014F4805D01C0895C22
:1009F000F8018083211531054105510521F0C22EF2
:100A0000E32FCA01E4CFB801C7010E94A404A19654
:100A10000FB6F894DEBF0FBECDBFDF91CF911F910F
:100A20000F91FF90EF90DF90CF90BF90AF909F908D
:100A30008F900895CF92DF92EF92FF920F931F93C2
:100A4000CF93DF93EC016A017B012115310579F425
:100A5000E881F9810190F081E02D642FDF91CF9141
:100A60001F910F91FF90EF90DF90CF9009942A3063
:100A70003105E9F477FF1AC06DE20E94BA048C01D7
:100A800044275527BA014C195D096E097F092AE0F0
:100A9000CE010E94C104800F911FDF91CF911F9161
:100AA0000F91FF90EF90DF90CF9008952AE0B7016B
:100AB000A601CE01DF91CF911F910F91FF90EF9092
:100AC000DF90CF900C94C1049A01AB01662757FDCB
:100AD0006095762F0C941A050895A1E21A2EAA1B90
:100AE000BB1BFD010DC0AA1FBB1FEE1FFF1FA217DE
:100AF000B307E407F50720F0A21BB30BE40BF50BDB
:100B0000661F771F881F991F1A9469F76095709563
:100B1000809590959B01AC01BD01CF010895EE0F2A
:0E0B2000FF1F0590F491E02D0994F894FFCF8B
:100B2E000E000500030002000100000000AD027C73
:020B3E000400B1
:00000001FF
