:100000000C9461000C947E000C947E000C947E0095
:100010000C947E000C947E000C947E000C947E0068
:100020000C947E000C947E000C947E000C947E0058
:100030000C947E000C947E000C947E000C947E0048
:100040000C94BD000C947E000C947E000C947E00F9
:100050000C947E000C947E000C947E000C947E0028
:100060000C947E000C947E00000000080002010049
:100070000003040700000000000000000102040863
:100080001020408001020408102001020408102002
:10009000040404040404040402020202020203032E
:1000A00003030303000000002300260029000000D2
:1000B0000000250028002B0000000000240027007D
:1000C0002A0011241FBECFEFD8E0DEBFCDBF11E064
:1000D000A0E0B1E0E2ECF4E002C005900D92A8309F
:1000E000B107D9F721E0A8E0B1E001C01D92A1312C
:1000F000B207E1F70E944F020C945F020C940000DB
:1001000062E0809106010E94B60162E080910401E4
:100110000E94B60161E0809102010E94B60162E096
:10012000809100010C94B601809106010E94250285
:10013000892B11F5809104010E9425020197E1F4B9
:10014000809100010E9425020197B1F461E0809145
:1001500002010E94EF0164EF71E080E090E00E94F4
:100160002A0160E0809102010E94EF0160E273E0E9
:1001700080E090E00C942A0108951F920F920FB630
:100180000F9211242F933F938F939F93AF93BF931D
:100190008091090190910A01A0910B01B0910C018D
:1001A0003091080123E0230F2D3720F40196A11D83
:1001B000B11D05C026E8230F0296A11DB11D209395
:1001C00008018093090190930A01A0930B01B09359
:1001D0000C0180910D0190910E01A0910F01B09141
:1001E00010010196A11DB11D80930D0190930E0188
:1001F000A0930F01B0931001BF91AF919F918F9188
:100200003F912F910F900FBE0F901F9018953FB701
:10021000F89480910D0190910E01A0910F01B09181
:10022000100126B5A89B05C02F3F19F00196A11D0E
:10023000B11D3FBF6627782F892F9A2F620F711D3E
:10024000811D911D42E0660F771F881F991F4A95F7
:10025000D1F70895CF92DF92EF92FF92CF93DF9381
:100260006B017C010E940701EB01C114D104E10480
:10027000F10489F00E945E020E9407016C1B7D0B55
:10028000683E734090F381E0C81AD108E108F10894
:10029000C851DC4FEACFDF91CF91FF90EF90DF9014
:1002A000CF900895789484B5826084BD84B58160D0
:1002B00084BD85B5826085BD85B5816085BDEEE66E
:1002C000F0E0808181608083E1E8F0E0108280814D
:1002D00082608083808181608083E0E8F0E08081BB
:1002E00081608083E1EBF0E0808184608083E0EBDB
:1002F000F0E0808181608083EAE7F0E080818460C3
:10030000808380818260808380818160808380811E
:10031000806880831092C1000895833081F028F4B2
:10032000813099F08230A1F008958730A9F08830AB
:10033000B9F08430D1F4809180008F7D03C080912A
:1003400080008F7780938000089584B58F7702C0F6
:1003500084B58F7D84BD08958091B0008F7703C0F0
:100360008091B0008F7D8093B0000895CF93DF938C
:1003700090E0FC01E458FF4F2491FC01E057FF4F4F
:100380008491882349F190E0880F991FFC01E8547B
:10039000FF4FA591B49182559F4FFC01C591D49117
:1003A0009FB7611108C0F8948C91209582238C939B
:1003B000888182230AC0623051F4F8948C91322FE4
:1003C000309583238C938881822B888304C0F89492
:1003D0008C91822B8C939FBFDF91CF9108950F93C7
:1003E0001F93CF93DF931F92CDB7DEB7282F30E056
:1003F000F901E859FF4F8491F901E458FF4F149136
:10040000F901E057FF4F04910023C9F0882321F040
:1004100069830E948D016981E02FF0E0EE0FFF1FDC
:10042000E255FF4FA591B4919FB7F8948C9161115B
:1004300003C01095812301C0812B8C939FBF0F9027
:10044000DF91CF911F910F910895CF93DF93282FC4
:1004500030E0F901E859FF4F8491F901E458FF4F6A
:10046000D491F901E057FF4FC491CC2391F0811151
:100470000E948D01EC2FF0E0EE0FFF1FEC55FF4FB7
:10048000A591B4912C912D2381E090E021F480E09E
:1004900002C080E090E0DF91CF91089508950E941E
:1004A00052010E944E020E948000C0E0D0E00E94F3
:1004B00094002097E1F30E940000F9CF0895F8948A
:0204C000FFCF6C
:0804C200040005000300020024
:00000001FF
