:100000000C9435000C945D000C945D000C945D0024
:100010000C945D000C945D000C945D000C945D00EC
:100020000C945D000C945D000C945D000C945D00DC
:100030000C945D000C945D000C945D000C945D00CC
:100040000C948A000C945D000C949F020C94D102D5
:100050000C945D000C945D000C945D000C945D00AC
:100060000C945D000C945D00010311241FBECFEFC2
:10007000D8E0DEBFCDBF13E0A0E0B1E0E6EAF7E0F4
:1000800002C005900D92A832B107D9F723E0A8E28B
:10009000B3E001C01D92AE3CB207E1F710E0CAE642
:1000A000D0E004C02297FE010E94CD03C836D107DC
:1000B000C9F70E9445030C94D1030C94000026E07C
:1000C00040E855E260E070E081E393E00E943D0289
:1000D00062E071E081E393E00E94960381E393E0A4
:1000E0000E94920381E393E00E9492036CE271E02C
:1000F00080E090E00C94F7006091000170910101A4
:1001000081E393E00E94960368EE73E080E090E064
:100110000C94F7001F920F920FB60F9211242F9399
:100120003F938F939F93AF93BF93809129039091B7
:100130002A03A0912B03B0912C033091280323E0D4
:10014000230F2D3720F40196A11DB11D05C026E80F
:10015000230F0296A11DB11D20932803809329032C
:1001600090932A03A0932B03B0932C0380912D032B
:1001700090912E03A0912F03B09130030196A11D01
:10018000B11D80932D0390932E03A0932F03B09362
:100190003003BF91AF919F918F913F912F910F901D
:1001A0000FBE0F901F9018953FB7F89480912D03C4
:1001B00090912E03A0912F03B091300326B5A89BF8
:1001C00005C02F3F19F00196A11DB11D3FBF662745
:1001D000782F892F9A2F620F711D811D911D42E08A
:1001E000660F771F881F991F4A95D1F70895CF9200
:1001F000DF92EF92FF92CF93DF936B017C010E941D
:10020000D400EB01C114D104E104F10489F00E948F
:10021000A8030E94D4006C1B7D0B683E734090F3D2
:1002200081E0C81AD108E108F108C851DC4FEACFD3
:10023000DF91CF91FF90EF90DF90CF900895789469
:1002400084B5826084BD84B5816084BD85B58260DB
:1002500085BD85B5816085BDEEE6F0E08081816079
:100260008083E1E8F0E01082808182608083808179
:1002700081608083E0E8F0E0808181608083E1EB51
:10028000F0E0808184608083E0EBF0E08081816039
:100290008083EAE7F0E080818460808380818260EF
:1002A00080838081816080838081806880831092D8
:1002B000C1000895FC01818D228D90E0805C9F4FEC
:1002C000821B91098F7399270895FC01918D828D6E
:1002D000981731F0828DE80FF11D858D90E008951B
:1002E0008FEF9FEF0895FC01918D828D981761F03B
:1002F000828DDF01A80FB11D5D968C91928D9F5F5D
:100300009F73928F90E008958FEF9FEF089587EF8E
:1003100092E0892B49F080E090E0892B29F00E943F
:10032000F70281110C9400000895FC01848DDF0117
:10033000A80FB11DA35ABF4F2C91848D90E0019658
:100340008F739927848FA689B7892C93A089B18947
:100350008C9180648C93938D848D981306C0028851
:10036000F389E02D80818F7D80830895CF93DF9383
:10037000EC01888D8823C9F0EA89FB89808185FD9D
:1003800005C0A889B9898C9186FD0FC00FB607FCFE
:10039000F5CF808185FFF2CFA889B9898C9185FF3F
:1003A000EDCFCE010E949501E7CFDF91CF91089567
:1003B000CF92DF92FF920F931F93CF93DF931F9201
:1003C000CDB7DEB76C0181E0D60158968C93589773
:1003D0005B969C915B975C968C915C97981307C099
:1003E0005096ED91FC915197808185FD2EC0F601CC
:1003F000038D10E00F5F1F4F0F731127F02EF601D2
:10040000848DF81211C00FB607FCF9CFD6015096B3
:10041000ED91FC915197808185FFF1CFC6016983F1
:100420000E9495016981EBCF838DE80FF11DE35A9E
:10043000FF4F6083D6015B960C935B975296ED91CC
:10044000FC915397808180620CC0D6015696ED9145
:10045000FC91579760835096ED91FC915197808164
:100460008064808381E090E00F90DF91CF911F91B5
:100470000F91FF90DF90CF900895BF92CF92DF92BF
:10048000EF92FF92CF93DF93EC016A017B01B22ED2
:10049000E889F98982E08083411581EE580761057A
:1004A0007105A1F060E079E08DE390E0A70196018D
:1004B0000E94A903215031094109510956954795D8
:1004C00037952795211580E1380798F0E889F98953
:1004D000108260E874E88EE190E0A70196010E9426
:1004E000A90321503109410951095695479537957E
:1004F0002795EC85FD853083EE85FF852083188E5A
:10050000EC89FD89B082EA89FB89808180618083E2
:10051000EA89FB89808188608083EA89FB89808100
:1005200080688083EA89FB8980818F7D8083DF9169
:10053000CF91FF90EF90DF90CF90BF9008951F92E2
:100540000F920FB60F9211242F938F939F93EF93D7
:10055000FF93E0914103F09142038081E0914703D2
:10056000F091480382FD12C0908180914A038F5F11
:100570008F7320914B03821751F0E0914A03F0E012
:10058000EF5CFC4F958F80934A0301C08081FF91FF
:10059000EF919F918F912F910F900FBE0F901F9011
:1005A00018951F920F920FB60F9211242F933F931D
:1005B0004F935F936F937F938F939F93AF93BF936B
:1005C000EF93FF9381E393E00E949501FF91EF91F8
:1005D000BF91AF919F918F917F916F915F914F915B
:1005E0003F912F910F900FBE0F901F90189581E3B0
:1005F00093E00E945A0121E0892B09F420E0822F28
:100600000895109234031092330388EE93E0A0E033
:10061000B0E08093350390933603A0933703B093F3
:1006200038038DE093E0909332038093310385EC9F
:1006300090E090933E0380933D0384EC90E0909390
:10064000400380933F0380EC90E0909342038093BB
:10065000410381EC90E0909344038093430382EC48
:1006600090E0909346038093450386EC90E090934E
:1006700048038093470310924A0310924B03109251
:100680004C0310924D03089508950E941F010E948B
:1006900044030E945F00C7E8D1E00E947C002097DD
:1006A000E1F30E948701F9CFCF92DF92EF92FF92A0
:1006B0000F931F93CF93DF936C017A01EB01E60E4A
:1006C000F71E00E010E0CE15DF0561F06991D6015C
:1006D000ED91FC910190F081E02DC6010995080F84
:1006E000191FF1CFC801DF91CF911F910F91FF909A
:1006F000EF90DF90CF9008956115710581F0DB01D7
:100700000D900020E9F7AD0141505109461B570BF0
:10071000DC01ED91FC910280F381E02D099480E0F1
:1007200090E0089566E073E00C947C030F931F93B0
:10073000CF93DF93EC010E947C038C01CE010E94D9
:100740009203800F911FDF91CF911F910F91089518
:100750000895A1E21A2EAA1BBB1BFD010DC0AA1F02
:10076000BB1FEE1FFF1FA217B307E407F50720F01A
:10077000A21BB30BE40BF50B661F771F881F991F95
:100780001A9469F760957095809590959B01AC01DE
:10079000BD01CF010895EE0FFF1F0590F491E02DEC
:0607A0000994F894FFCF5C
:1007A6004601475053204D6F64756C6520666F7225
:1007B6002050726F74657573202D204465736967C8
:1007C6006E6564206279207777772E546865456E6A
:1007D60067696E656572696E6750726F6A65637484
:1007E600732E636F6D00244750524D432C303435C1
:1007F6003130332E3030302C412C333031342E31E1
:100806003938342C4E2C30393734392E3238373289
:100816002C572C302E36372C3136312E34362C30A0
:1008260033303931332C2C2C412A37430D0A2447D7
:10083600504747412C3034353130342E3030302C4F
:10084600333031342E313938352C4E2C303937345B
:10085600392E323837332C572C312C30392C312E57
:10086600322C3231312E362C4D2C2D32322E352C67
:100876004D2C2C303030302A36320D0A2447505257
:100886004D432C3034353230302E3030302C412C24
:10089600333031342E333832302C4E2C3039373415
:1008A600382E393531342C572C33362E38382C36F1
:1008B600352E30322C3033303931332C2C2C412A22
:1008C60037370D0A2447504747412C3034353230EC
:1008D600312E3030302C333031342E333836342C00
:1008E6004E2C30393734382E393431312C572C319F
:1008F6002C31302C312E322C3230302E382C4D2CDF
:100906002D32322E352C4D2C2C303030302A3643B9
:100916000D0A244750524D432C3034353235312E92
:100926003030302C412C333031342E343237352CA4
:100936004E2C30393734392E303632362C572C304F
:100946002E35312C3231372E39342C303330393183
:10095600332C2C2C412A37440D0A24475047474153
:100966002C3034353235322E3030302C3330313471
:100976002E343237332C4E2C30393734392E30362C
:1009860032382C572C312C30392C312E332C323036
:10099600362E392C4D2C2D32322E352C4D2C2C301A
:1009A6003030302A36460D0A0000000000D80154C7
:1009B600035A0173016501B6016E616E00696E66C8
:0809C600006F7666002E0000B0
:00000001FF
