:020000040000FA
:020000002028B6
:08000800200080312008A10056
:1000100011181728911A102820002108A0000900A3
:1000200091120C2823009A00210011120C281110A3
:10003000F0140E1070141810210011100C280C2848
:10004000200008308C0000308D0000308E00210030
:10005000FF308C00FF308D0086308E00083090001D
:10006000230001308C0000308D002100F030990019
:100070002300CF309B009C019F0110309D009D17F5
:10008000210091162100C7309500210020309E00EC
:1000900001309D0020003430980020000B178B1792
:1000A00023009D13A2017010F01020000E19562895
:1000B0000E1D5828970102309600181421001114C3
:1000C00020000E1D61280E19632818102100111040
:1000D0002000F01872281708031D72280A30160233
:1000E000031C522820008030A400A40B7528210096
:1000F0009D149D18792821001C082000970097095D
:1001000021001B08200096009609960A031C970AF6
:1001100021001114200018140E140E140E14701C5B
:100120008F2852288031220882079828A328A528E2
:1001300094309700703096002100111423009D1711
:10014000A0280130A7280230A7280030A7282000C7
:0C015000A200AA2820000800AA28AA2863
:020000040001F9
:02000E0084CF9D
:02001000FFDA15
:00000001FF
